{
  "contractName": "Land",
  "abi": [
    {
      "inputs": [
        {
          "internalType": "string",
          "name": "_name",
          "type": "string"
        },
        {
          "internalType": "string",
          "name": "_symbol",
          "type": "string"
        },
        {
          "internalType": "uint256",
          "name": "_cost",
          "type": "uint256"
        }
      ],
      "stateMutability": "nonpayable",
      "type": "constructor"
    },
    {
      "anonymous": false,
      "inputs": [
        {
          "indexed": true,
          "internalType": "address",
          "name": "owner",
          "type": "address"
        },
        {
          "indexed": true,
          "internalType": "address",
          "name": "approved",
          "type": "address"
        },
        {
          "indexed": true,
          "internalType": "uint256",
          "name": "tokenId",
          "type": "uint256"
        }
      ],
      "name": "Approval",
      "type": "event"
    },
    {
      "anonymous": false,
      "inputs": [
        {
          "indexed": true,
          "internalType": "address",
          "name": "owner",
          "type": "address"
        },
        {
          "indexed": true,
          "internalType": "address",
          "name": "operator",
          "type": "address"
        },
        {
          "indexed": false,
          "internalType": "bool",
          "name": "approved",
          "type": "bool"
        }
      ],
      "name": "ApprovalForAll",
      "type": "event"
    },
    {
      "anonymous": false,
      "inputs": [
        {
          "indexed": true,
          "internalType": "address",
          "name": "from",
          "type": "address"
        },
        {
          "indexed": true,
          "internalType": "address",
          "name": "to",
          "type": "address"
        },
        {
          "indexed": true,
          "internalType": "uint256",
          "name": "tokenId",
          "type": "uint256"
        }
      ],
      "name": "Transfer",
      "type": "event"
    },
    {
      "inputs": [
        {
          "internalType": "address",
          "name": "to",
          "type": "address"
        },
        {
          "internalType": "uint256",
          "name": "tokenId",
          "type": "uint256"
        }
      ],
      "name": "approve",
      "outputs": [],
      "stateMutability": "nonpayable",
      "type": "function"
    },
    {
      "inputs": [
        {
          "internalType": "address",
          "name": "owner",
          "type": "address"
        }
      ],
      "name": "balanceOf",
      "outputs": [
        {
          "internalType": "uint256",
          "name": "",
          "type": "uint256"
        }
      ],
      "stateMutability": "view",
      "type": "function",
      "constant": true
    },
    {
      "inputs": [
        {
          "internalType": "uint256",
          "name": "",
          "type": "uint256"
        }
      ],
      "name": "buildings",
      "outputs": [
        {
          "internalType": "string",
          "name": "name",
          "type": "string"
        },
        {
          "internalType": "address",
          "name": "owner",
          "type": "address"
        },
        {
          "internalType": "int256",
          "name": "posX",
          "type": "int256"
        },
        {
          "internalType": "int256",
          "name": "posY",
          "type": "int256"
        },
        {
          "internalType": "int256",
          "name": "posZ",
          "type": "int256"
        },
        {
          "internalType": "uint256",
          "name": "sizeX",
          "type": "uint256"
        },
        {
          "internalType": "uint256",
          "name": "sizeY",
          "type": "uint256"
        },
        {
          "internalType": "uint256",
          "name": "sizeZ",
          "type": "uint256"
        }
      ],
      "stateMutability": "view",
      "type": "function",
      "constant": true
    },
    {
      "inputs": [],
      "name": "cost",
      "outputs": [
        {
          "internalType": "uint256",
          "name": "",
          "type": "uint256"
        }
      ],
      "stateMutability": "view",
      "type": "function",
      "constant": true
    },
    {
      "inputs": [
        {
          "internalType": "uint256",
          "name": "tokenId",
          "type": "uint256"
        }
      ],
      "name": "getApproved",
      "outputs": [
        {
          "internalType": "address",
          "name": "",
          "type": "address"
        }
      ],
      "stateMutability": "view",
      "type": "function",
      "constant": true
    },
    {
      "inputs": [
        {
          "internalType": "address",
          "name": "owner",
          "type": "address"
        },
        {
          "internalType": "address",
          "name": "operator",
          "type": "address"
        }
      ],
      "name": "isApprovedForAll",
      "outputs": [
        {
          "internalType": "bool",
          "name": "",
          "type": "bool"
        }
      ],
      "stateMutability": "view",
      "type": "function",
      "constant": true
    },
    {
      "inputs": [],
      "name": "maxSupply",
      "outputs": [
        {
          "internalType": "uint256",
          "name": "",
          "type": "uint256"
        }
      ],
      "stateMutability": "view",
      "type": "function",
      "constant": true
    },
    {
      "inputs": [],
      "name": "name",
      "outputs": [
        {
          "internalType": "string",
          "name": "",
          "type": "string"
        }
      ],
      "stateMutability": "view",
      "type": "function",
      "constant": true
    },
    {
      "inputs": [
        {
          "internalType": "uint256",
          "name": "tokenId",
          "type": "uint256"
        }
      ],
      "name": "ownerOf",
      "outputs": [
        {
          "internalType": "address",
          "name": "",
          "type": "address"
        }
      ],
      "stateMutability": "view",
      "type": "function",
      "constant": true
    },
    {
      "inputs": [
        {
          "internalType": "address",
          "name": "operator",
          "type": "address"
        },
        {
          "internalType": "bool",
          "name": "approved",
          "type": "bool"
        }
      ],
      "name": "setApprovalForAll",
      "outputs": [],
      "stateMutability": "nonpayable",
      "type": "function"
    },
    {
      "inputs": [
        {
          "internalType": "bytes4",
          "name": "interfaceId",
          "type": "bytes4"
        }
      ],
      "name": "supportsInterface",
      "outputs": [
        {
          "internalType": "bool",
          "name": "",
          "type": "bool"
        }
      ],
      "stateMutability": "view",
      "type": "function",
      "constant": true
    },
    {
      "inputs": [],
      "name": "symbol",
      "outputs": [
        {
          "internalType": "string",
          "name": "",
          "type": "string"
        }
      ],
      "stateMutability": "view",
      "type": "function",
      "constant": true
    },
    {
      "inputs": [
        {
          "internalType": "uint256",
          "name": "tokenId",
          "type": "uint256"
        }
      ],
      "name": "tokenURI",
      "outputs": [
        {
          "internalType": "string",
          "name": "",
          "type": "string"
        }
      ],
      "stateMutability": "view",
      "type": "function",
      "constant": true
    },
    {
      "inputs": [],
      "name": "totalSupply",
      "outputs": [
        {
          "internalType": "uint256",
          "name": "",
          "type": "uint256"
        }
      ],
      "stateMutability": "view",
      "type": "function",
      "constant": true
    },
    {
      "inputs": [
        {
          "internalType": "uint256",
          "name": "_id",
          "type": "uint256"
        }
      ],
      "name": "mint",
      "outputs": [],
      "stateMutability": "payable",
      "type": "function",
      "payable": true
    },
    {
      "inputs": [
        {
          "internalType": "address",
          "name": "from",
          "type": "address"
        },
        {
          "internalType": "address",
          "name": "to",
          "type": "address"
        },
        {
          "internalType": "uint256",
          "name": "tokenId",
          "type": "uint256"
        }
      ],
      "name": "transferFrom",
      "outputs": [],
      "stateMutability": "nonpayable",
      "type": "function"
    },
    {
      "inputs": [
        {
          "internalType": "address",
          "name": "from",
          "type": "address"
        },
        {
          "internalType": "address",
          "name": "to",
          "type": "address"
        },
        {
          "internalType": "uint256",
          "name": "tokenId",
          "type": "uint256"
        }
      ],
      "name": "safeTransferFrom",
      "outputs": [],
      "stateMutability": "nonpayable",
      "type": "function"
    },
    {
      "inputs": [
        {
          "internalType": "address",
          "name": "from",
          "type": "address"
        },
        {
          "internalType": "address",
          "name": "to",
          "type": "address"
        },
        {
          "internalType": "uint256",
          "name": "tokenId",
          "type": "uint256"
        },
        {
          "internalType": "bytes",
          "name": "_data",
          "type": "bytes"
        }
      ],
      "name": "safeTransferFrom",
      "outputs": [],
      "stateMutability": "nonpayable",
      "type": "function"
    },
    {
      "inputs": [],
      "name": "getBuildings",
      "outputs": [
        {
          "components": [
            {
              "internalType": "string",
              "name": "name",
              "type": "string"
            },
            {
              "internalType": "address",
              "name": "owner",
              "type": "address"
            },
            {
              "internalType": "int256",
              "name": "posX",
              "type": "int256"
            },
            {
              "internalType": "int256",
              "name": "posY",
              "type": "int256"
            },
            {
              "internalType": "int256",
              "name": "posZ",
              "type": "int256"
            },
            {
              "internalType": "uint256",
              "name": "sizeX",
              "type": "uint256"
            },
            {
              "internalType": "uint256",
              "name": "sizeY",
              "type": "uint256"
            },
            {
              "internalType": "uint256",
              "name": "sizeZ",
              "type": "uint256"
            }
          ],
          "internalType": "struct Land.Building[]",
          "name": "",
          "type": "tuple[]"
        }
      ],
      "stateMutability": "view",
      "type": "function",
      "constant": true
    },
    {
      "inputs": [
        {
          "internalType": "uint256",
          "name": "_id",
          "type": "uint256"
        }
      ],
      "name": "getBuilding",
      "outputs": [
        {
          "components": [
            {
              "internalType": "string",
              "name": "name",
              "type": "string"
            },
            {
              "internalType": "address",
              "name": "owner",
              "type": "address"
            },
            {
              "internalType": "int256",
              "name": "posX",
              "type": "int256"
            },
            {
              "internalType": "int256",
              "name": "posY",
              "type": "int256"
            },
            {
              "internalType": "int256",
              "name": "posZ",
              "type": "int256"
            },
            {
              "internalType": "uint256",
              "name": "sizeX",
              "type": "uint256"
            },
            {
              "internalType": "uint256",
              "name": "sizeY",
              "type": "uint256"
            },
            {
              "internalType": "uint256",
              "name": "sizeZ",
              "type": "uint256"
            }
          ],
          "internalType": "struct Land.Building",
          "name": "",
          "type": "tuple"
        }
      ],
      "stateMutability": "view",
      "type": "function",
      "constant": true
    }
  ],
  "bytecode": "0x6080604052670de0b6b3a7640000600655600560075560006008553480156200002757600080fd5b5060405162003df938038062003df983398181016040528101906200004d9190620008d1565b828281600090805190602001906200006792919062000798565b5080600190805190602001906200008092919062000798565b5050508060068190555060096040518061010001604052806040518060400160405280600981526020017f436974792048616c6c00000000000000000000000000000000000000000000008152508152602001600073ffffffffffffffffffffffffffffffffffffffff168152602001600081526020016000815260200160008152602001600a8152602001600a8152602001600a815250908060018154018082558091505060019003906000526020600020906008020160009091909190915060008201518160000190805190602001906200015f92919062000798565b5060208201518160010160006101000a81548173ffffffffffffffffffffffffffffffffffffffff021916908373ffffffffffffffffffffffffffffffffffffffff16021790555060408201518160020155606082015181600301556080820151816004015560a0820151816005015560c0820151816006015560e08201518160070155505060096040518061010001604052806040518060400160405280600781526020017f5374616469756d000000000000000000000000000000000000000000000000008152508152602001600073ffffffffffffffffffffffffffffffffffffffff16815260200160008152602001600a815260200160008152602001600a815260200160058152602001600381525090806001815401808255809150506001900390600052602060002090600802016000909190919091506000820151816000019080519060200190620002ba92919062000798565b5060208201518160010160006101000a81548173ffffffffffffffffffffffffffffffffffffffff021916908373ffffffffffffffffffffffffffffffffffffffff16021790555060408201518160020155606082015181600301556080820151816004015560a0820151816005015560c0820151816006015560e08201518160070155505060096040518061010001604052806040518060400160405280600a81526020017f556e6976657273697479000000000000000000000000000000000000000000008152508152602001600073ffffffffffffffffffffffffffffffffffffffff168152602001600081526020017ffffffffffffffffffffffffffffffffffffffffffffffffffffffffffffffff6815260200160008152602001600a8152602001600581526020016003815250908060018154018082558091505060019003906000526020600020906008020160009091909190915060008201518160000190805190602001906200043492919062000798565b5060208201518160010160006101000a81548173ffffffffffffffffffffffffffffffffffffffff021916908373ffffffffffffffffffffffffffffffffffffffff16021790555060408201518160020155606082015181600301556080820151816004015560a0820151816005015560c0820151816006015560e08201518160070155505060096040518061010001604052806040518060400160405280601081526020017f53686f7070696e6720506c617a612031000000000000000000000000000000008152508152602001600073ffffffffffffffffffffffffffffffffffffffff168152602001600a8152602001600081526020016000815260200160058152602001601981526020016005815250908060018154018082558091505060019003906000526020600020906008020160009091909190915060008201518160000190805190602001906200058f92919062000798565b5060208201518160010160006101000a81548173ffffffffffffffffffffffffffffffffffffffff021916908373ffffffffffffffffffffffffffffffffffffffff16021790555060408201518160020155606082015181600301556080820151816004015560a0820151816005015560c0820151816006015560e08201518160070155505060096040518061010001604052806040518060400160405280601081526020017f53686f7070696e6720506c617a612032000000000000000000000000000000008152508152602001600073ffffffffffffffffffffffffffffffffffffffff1681526020017ffffffffffffffffffffffffffffffffffffffffffffffffffffffffffffffff68152602001600081526020016000815260200160058152602001601981526020016005815250908060018154018082558091505060019003906000526020600020906008020160009091909190915060008201518160000190805190602001906200070992919062000798565b5060208201518160010160006101000a81548173ffffffffffffffffffffffffffffffffffffffff021916908373ffffffffffffffffffffffffffffffffffffffff16021790555060408201518160020155606082015181600301556080820151816004015560a0820151816005015560c0820151816006015560e08201518160070155505050505062000aae565b828054620007a69062000a00565b90600052602060002090601f016020900481019282620007ca576000855562000816565b82601f10620007e557805160ff191683800117855562000816565b8280016001018555821562000816579182015b8281111562000815578251825591602001919060010190620007f8565b5b50905062000825919062000829565b5090565b5b80821115620008445760008160009055506001016200082a565b5090565b60006200085f62000859846200098d565b62000959565b9050828152602081018484840111156200087857600080fd5b62000885848285620009ca565b509392505050565b600082601f8301126200089f57600080fd5b8151620008b184826020860162000848565b91505092915050565b600081519050620008cb8162000a94565b92915050565b600080600060608486031215620008e757600080fd5b600084015167ffffffffffffffff8111156200090257600080fd5b62000910868287016200088d565b935050602084015167ffffffffffffffff8111156200092e57600080fd5b6200093c868287016200088d565b92505060406200094f86828701620008ba565b9150509250925092565b6000604051905081810181811067ffffffffffffffff8211171562000983576200098262000a65565b5b8060405250919050565b600067ffffffffffffffff821115620009ab57620009aa62000a65565b5b601f19601f8301169050602081019050919050565b6000819050919050565b60005b83811015620009ea578082015181840152602081019050620009cd565b83811115620009fa576000848401525b50505050565b6000600282049050600182168062000a1957607f821691505b6020821081141562000a305762000a2f62000a36565b5b50919050565b7f4e487b7100000000000000000000000000000000000000000000000000000000600052602260045260246000fd5b7f4e487b7100000000000000000000000000000000000000000000000000000000600052604160045260246000fd5b62000a9f81620009c0565b811462000aab57600080fd5b50565b61333b8062000abe6000396000f3fe60806040526004361061011f5760003560e01c806370a08231116100a0578063b88d4fde11610064578063b88d4fde14610405578063c87b56dd1461042e578063d5abeb011461046b578063d9cf6a2614610496578063e985e9c5146104c15761011f565b806370a082311461031b57806395d89b41146103585780639dfd8b0214610383578063a0712d68146103c0578063a22cb465146103dc5761011f565b806318160ddd116100e757806318160ddd1461021d57806323b872dd1461024857806342842e0e146102715780634c96a0621461029a5780636352211e146102de5761011f565b806301ffc9a71461012457806306fdde0314610161578063081812fc1461018c578063095ea7b3146101c957806313faede6146101f2575b600080fd5b34801561013057600080fd5b5061014b60048036038101906101469190612290565b6104fe565b6040516101589190612c08565b60405180910390f35b34801561016d57600080fd5b506101766105e0565b6040516101839190612c23565b60405180910390f35b34801561019857600080fd5b506101b360048036038101906101ae91906122e2565b610672565b6040516101c09190612b7f565b60405180910390f35b3480156101d557600080fd5b506101f060048036038101906101eb9190612254565b6106f7565b005b3480156101fe57600080fd5b5061020761080f565b6040516102149190612eac565b60405180910390f35b34801561022957600080fd5b50610232610815565b60405161023f9190612eac565b60405180910390f35b34801561025457600080fd5b5061026f600480360381019061026a919061214e565b61081b565b005b34801561027d57600080fd5b506102986004803603810190610293919061214e565b610911565b005b3480156102a657600080fd5b506102c160048036038101906102bc91906122e2565b610931565b6040516102d5989796959493929190612c45565b60405180910390f35b3480156102ea57600080fd5b50610305600480360381019061030091906122e2565b610a31565b6040516103129190612b7f565b60405180910390f35b34801561032757600080fd5b50610342600480360381019061033d91906120e9565b610ae3565b60405161034f9190612eac565b60405180910390f35b34801561036457600080fd5b5061036d610b9b565b60405161037a9190612c23565b60405180910390f35b34801561038f57600080fd5b506103aa60048036038101906103a591906122e2565b610c2d565b6040516103b79190612e8a565b60405180910390f35b6103da60048036038101906103d591906122e2565b610dc0565b005b3480156103e857600080fd5b5061040360048036038101906103fe9190612218565b610f4e565b005b34801561041157600080fd5b5061042c6004803603810190610427919061219d565b610f64565b005b34801561043a57600080fd5b50610455600480360381019061045091906122e2565b61105c565b6040516104629190612c23565b60405180910390f35b34801561047757600080fd5b50610480611103565b60405161048d9190612eac565b60405180910390f35b3480156104a257600080fd5b506104ab611109565b6040516104b89190612be6565b60405180910390f35b3480156104cd57600080fd5b506104e860048036038101906104e39190612112565b61128d565b6040516104f59190612c08565b60405180910390f35b60007f80ac58cd000000000000000000000000000000000000000000000000000000007bffffffffffffffffffffffffffffffffffffffffffffffffffffffff1916827bffffffffffffffffffffffffffffffffffffffffffffffffffffffff191614806105c957507f5b5e139f000000000000000000000000000000000000000000000000000000007bffffffffffffffffffffffffffffffffffffffffffffffffffffffff1916827bffffffffffffffffffffffffffffffffffffffffffffffffffffffff1916145b806105d957506105d882611321565b5b9050919050565b6060600080546105ef90613130565b80601f016020809104026020016040519081016040528092919081815260200182805461061b90613130565b80156106685780601f1061063d57610100808354040283529160200191610668565b820191906000526020600020905b81548152906001019060200180831161064b57829003601f168201915b5050505050905090565b600061067d8261138b565b6106bc576040517f08c379a00000000000000000000000000000000000000000000000000000000081526004016106b390612e0a565b60405180910390fd5b6004600083815260200190815260200160002060009054906101000a900473ffffffffffffffffffffffffffffffffffffffff169050919050565b600061070282610a31565b90508073ffffffffffffffffffffffffffffffffffffffff168373ffffffffffffffffffffffffffffffffffffffff161415610773576040517f08c379a000000000000000000000000000000000000000000000000000000000815260040161076a90612e4a565b60405180910390fd5b8073ffffffffffffffffffffffffffffffffffffffff166107926113f7565b73ffffffffffffffffffffffffffffffffffffffff1614806107c157506107c0816107bb6113f7565b61128d565b5b610800576040517f08c379a00000000000000000000000000000000000000000000000000000000081526004016107f790612d8a565b60405180910390fd5b61080a83836113ff565b505050565b60065481565b60085481565b61082c6108266113f7565b826114b8565b61086b576040517f08c379a000000000000000000000000000000000000000000000000000000000815260040161086290612e6a565b60405180910390fd5b81600960018361087b919061303c565b815481106108b2577f4e487b7100000000000000000000000000000000000000000000000000000000600052603260045260246000fd5b906000526020600020906008020160010160006101000a81548173ffffffffffffffffffffffffffffffffffffffff021916908373ffffffffffffffffffffffffffffffffffffffff16021790555061090c838383611596565b505050565b61092c83838360405180602001604052806000815250610f64565b505050565b6009818154811061094157600080fd5b906000526020600020906008020160009150905080600001805461096490613130565b80601f016020809104026020016040519081016040528092919081815260200182805461099090613130565b80156109dd5780601f106109b2576101008083540402835291602001916109dd565b820191906000526020600020905b8154815290600101906020018083116109c057829003601f168201915b5050505050908060010160009054906101000a900473ffffffffffffffffffffffffffffffffffffffff16908060020154908060030154908060040154908060050154908060060154908060070154905088565b6000806002600084815260200190815260200160002060009054906101000a900473ffffffffffffffffffffffffffffffffffffffff169050600073ffffffffffffffffffffffffffffffffffffffff168173ffffffffffffffffffffffffffffffffffffffff161415610ada576040517f08c379a0000000000000000000000000000000000000000000000000000000008152600401610ad190612dca565b60405180910390fd5b80915050919050565b60008073ffffffffffffffffffffffffffffffffffffffff168273ffffffffffffffffffffffffffffffffffffffff161415610b54576040517f08c379a0000000000000000000000000000000000000000000000000000000008152600401610b4b90612daa565b60405180910390fd5b600360008373ffffffffffffffffffffffffffffffffffffffff1673ffffffffffffffffffffffffffffffffffffffff168152602001908152602001600020549050919050565b606060018054610baa90613130565b80601f0160208091040260200160405190810160405280929190818152602001828054610bd690613130565b8015610c235780601f10610bf857610100808354040283529160200191610c23565b820191906000526020600020905b815481529060010190602001808311610c0657829003601f168201915b5050505050905090565b610c35611fbd565b6009600183610c44919061303c565b81548110610c7b577f4e487b7100000000000000000000000000000000000000000000000000000000600052603260045260246000fd5b906000526020600020906008020160405180610100016040529081600082018054610ca590613130565b80601f0160208091040260200160405190810160405280929190818152602001828054610cd190613130565b8015610d1e5780601f10610cf357610100808354040283529160200191610d1e565b820191906000526020600020905b815481529060010190602001808311610d0157829003601f168201915b505050505081526020016001820160009054906101000a900473ffffffffffffffffffffffffffffffffffffffff1673ffffffffffffffffffffffffffffffffffffffff1673ffffffffffffffffffffffffffffffffffffffff16815260200160028201548152602001600382015481526020016004820154815260200160058201548152602001600682015481526020016007820154815250509050919050565b60006008549050600754811115610dd657600080fd5b600073ffffffffffffffffffffffffffffffffffffffff166009600184610dfd919061303c565b81548110610e34577f4e487b7100000000000000000000000000000000000000000000000000000000600052603260045260246000fd5b906000526020600020906008020160010160009054906101000a900473ffffffffffffffffffffffffffffffffffffffff1673ffffffffffffffffffffffffffffffffffffffff1614610e8657600080fd5b600654341015610e9557600080fd5b336009600184610ea5919061303c565b81548110610edc577f4e487b7100000000000000000000000000000000000000000000000000000000600052603260045260246000fd5b906000526020600020906008020160010160006101000a81548173ffffffffffffffffffffffffffffffffffffffff021916908373ffffffffffffffffffffffffffffffffffffffff1602179055506001600854610f3a9190612fb5565b600881905550610f4a33836117fd565b5050565b610f60610f596113f7565b838361181b565b5050565b610f75610f6f6113f7565b836114b8565b610fb4576040517f08c379a0000000000000000000000000000000000000000000000000000000008152600401610fab90612e6a565b60405180910390fd5b826009600184610fc4919061303c565b81548110610ffb577f4e487b7100000000000000000000000000000000000000000000000000000000600052603260045260246000fd5b906000526020600020906008020160010160006101000a81548173ffffffffffffffffffffffffffffffffffffffff021916908373ffffffffffffffffffffffffffffffffffffffff16021790555061105684848484611988565b50505050565b60606110678261138b565b6110a6576040517f08c379a000000000000000000000000000000000000000000000000000000000815260040161109d90612e2a565b60405180910390fd5b60006110b06119e4565b905060008151116110d057604051806020016040528060008152506110fb565b806110da846119fb565b6040516020016110eb929190612b5b565b6040516020818303038152906040525b915050919050565b60075481565b60606009805480602002602001604051908101604052809291908181526020016000905b8282101561128457838290600052602060002090600802016040518061010001604052908160008201805461116190613130565b80601f016020809104026020016040519081016040528092919081815260200182805461118d90613130565b80156111da5780601f106111af576101008083540402835291602001916111da565b820191906000526020600020905b8154815290600101906020018083116111bd57829003601f168201915b505050505081526020016001820160009054906101000a900473ffffffffffffffffffffffffffffffffffffffff1673ffffffffffffffffffffffffffffffffffffffff1673ffffffffffffffffffffffffffffffffffffffff16815260200160028201548152602001600382015481526020016004820154815260200160058201548152602001600682015481526020016007820154815250508152602001906001019061112d565b50505050905090565b6000600560008473ffffffffffffffffffffffffffffffffffffffff1673ffffffffffffffffffffffffffffffffffffffff16815260200190815260200160002060008373ffffffffffffffffffffffffffffffffffffffff1673ffffffffffffffffffffffffffffffffffffffff16815260200190815260200160002060009054906101000a900460ff16905092915050565b60007f01ffc9a7000000000000000000000000000000000000000000000000000000007bffffffffffffffffffffffffffffffffffffffffffffffffffffffff1916827bffffffffffffffffffffffffffffffffffffffffffffffffffffffff1916149050919050565b60008073ffffffffffffffffffffffffffffffffffffffff166002600084815260200190815260200160002060009054906101000a900473ffffffffffffffffffffffffffffffffffffffff1673ffffffffffffffffffffffffffffffffffffffff1614159050919050565b600033905090565b816004600083815260200190815260200160002060006101000a81548173ffffffffffffffffffffffffffffffffffffffff021916908373ffffffffffffffffffffffffffffffffffffffff160217905550808273ffffffffffffffffffffffffffffffffffffffff1661147283610a31565b73ffffffffffffffffffffffffffffffffffffffff167f8c5be1e5ebec7d5bd14f71427d1e84f3dd0314c0f7b2291e5b200ac8c7c3b92560405160405180910390a45050565b60006114c38261138b565b611502576040517f08c379a00000000000000000000000000000000000000000000000000000000081526004016114f990612d6a565b60405180910390fd5b600061150d83610a31565b90508073ffffffffffffffffffffffffffffffffffffffff168473ffffffffffffffffffffffffffffffffffffffff16148061154f575061154e818561128d565b5b8061158d57508373ffffffffffffffffffffffffffffffffffffffff1661157584610672565b73ffffffffffffffffffffffffffffffffffffffff16145b91505092915050565b8273ffffffffffffffffffffffffffffffffffffffff166115b682610a31565b73ffffffffffffffffffffffffffffffffffffffff161461160c576040517f08c379a000000000000000000000000000000000000000000000000000000000815260040161160390612cea565b60405180910390fd5b600073ffffffffffffffffffffffffffffffffffffffff168273ffffffffffffffffffffffffffffffffffffffff16141561167c576040517f08c379a000000000000000000000000000000000000000000000000000000000815260040161167390612d2a565b60405180910390fd5b611687838383611ba8565b6116926000826113ff565b6001600360008573ffffffffffffffffffffffffffffffffffffffff1673ffffffffffffffffffffffffffffffffffffffff16815260200190815260200160002060008282546116e2919061303c565b925050819055506001600360008473ffffffffffffffffffffffffffffffffffffffff1673ffffffffffffffffffffffffffffffffffffffff16815260200190815260200160002060008282546117399190612fb5565b92505081905550816002600083815260200190815260200160002060006101000a81548173ffffffffffffffffffffffffffffffffffffffff021916908373ffffffffffffffffffffffffffffffffffffffff160217905550808273ffffffffffffffffffffffffffffffffffffffff168473ffffffffffffffffffffffffffffffffffffffff167fddf252ad1be2c89b69c2b068fc378daa952ba7f163c4a11628f55a4df523b3ef60405160405180910390a46117f8838383611bad565b505050565b611817828260405180602001604052806000815250611bb2565b5050565b8173ffffffffffffffffffffffffffffffffffffffff168373ffffffffffffffffffffffffffffffffffffffff16141561188a576040517f08c379a000000000000000000000000000000000000000000000000000000000815260040161188190612d4a565b60405180910390fd5b80600560008573ffffffffffffffffffffffffffffffffffffffff1673ffffffffffffffffffffffffffffffffffffffff16815260200190815260200160002060008473ffffffffffffffffffffffffffffffffffffffff1673ffffffffffffffffffffffffffffffffffffffff16815260200190815260200160002060006101000a81548160ff0219169083151502179055508173ffffffffffffffffffffffffffffffffffffffff168373ffffffffffffffffffffffffffffffffffffffff167f17307eab39ab6107e8899845ad3d59bd9653f200f220920489ca2b5937696c318360405161197b9190612c08565b60405180910390a3505050565b611993848484611596565b61199f84848484611c0d565b6119de576040517f08c379a00000000000000000000000000000000000000000000000000000000081526004016119d590612cca565b60405180910390fd5b50505050565b606060405180602001604052806000815250905090565b60606000821415611a43576040518060400160405280600181526020017f30000000000000000000000000000000000000000000000000000000000000008152509050611ba3565b600082905060005b60008214611a75578080611a5e90613162565b915050600a82611a6e919061300b565b9150611a4b565b60008167ffffffffffffffff811115611ab7577f4e487b7100000000000000000000000000000000000000000000000000000000600052604160045260246000fd5b6040519080825280601f01601f191660200182016040528015611ae95781602001600182028036833780820191505090505b5090505b60008514611b9c57600182611b02919061303c565b9150600a85611b1191906131ab565b6030611b1d9190612fb5565b60f81b818381518110611b59577f4e487b7100000000000000000000000000000000000000000000000000000000600052603260045260246000fd5b60200101907effffffffffffffffffffffffffffffffffffffffffffffffffffffffffffff1916908160001a905350600a85611b95919061300b565b9450611aed565b8093505050505b919050565b505050565b505050565b611bbc8383611da4565b611bc96000848484611c0d565b611c08576040517f08c379a0000000000000000000000000000000000000000000000000000000008152600401611bff90612cca565b60405180910390fd5b505050565b6000611c2e8473ffffffffffffffffffffffffffffffffffffffff16611f7e565b15611d97578373ffffffffffffffffffffffffffffffffffffffff1663150b7a02611c576113f7565b8786866040518563ffffffff1660e01b8152600401611c799493929190612b9a565b602060405180830381600087803b158015611c9357600080fd5b505af1925050508015611cc457506040513d601f19601f82011682018060405250810190611cc191906122b9565b60015b611d47573d8060008114611cf4576040519150601f19603f3d011682016040523d82523d6000602084013e611cf9565b606091505b50600081511415611d3f576040517f08c379a0000000000000000000000000000000000000000000000000000000008152600401611d3690612cca565b60405180910390fd5b805181602001fd5b63150b7a0260e01b7bffffffffffffffffffffffffffffffffffffffffffffffffffffffff1916817bffffffffffffffffffffffffffffffffffffffffffffffffffffffff191614915050611d9c565b600190505b949350505050565b600073ffffffffffffffffffffffffffffffffffffffff168273ffffffffffffffffffffffffffffffffffffffff161415611e14576040517f08c379a0000000000000000000000000000000000000000000000000000000008152600401611e0b90612dea565b60405180910390fd5b611e1d8161138b565b15611e5d576040517f08c379a0000000000000000000000000000000000000000000000000000000008152600401611e5490612d0a565b60405180910390fd5b611e6960008383611ba8565b6001600360008473ffffffffffffffffffffffffffffffffffffffff1673ffffffffffffffffffffffffffffffffffffffff1681526020019081526020016000206000828254611eb99190612fb5565b92505081905550816002600083815260200190815260200160002060006101000a81548173ffffffffffffffffffffffffffffffffffffffff021916908373ffffffffffffffffffffffffffffffffffffffff160217905550808273ffffffffffffffffffffffffffffffffffffffff16600073ffffffffffffffffffffffffffffffffffffffff167fddf252ad1be2c89b69c2b068fc378daa952ba7f163c4a11628f55a4df523b3ef60405160405180910390a4611f7a60008383611bad565b5050565b6000808273ffffffffffffffffffffffffffffffffffffffff16803b806020016040519081016040528181526000908060200190933c51119050919050565b60405180610100016040528060608152602001600073ffffffffffffffffffffffffffffffffffffffff1681526020016000815260200160008152602001600081526020016000815260200160008152602001600081525090565b600061202b61202684612ef8565b612ec7565b90508281526020810184848401111561204357600080fd5b61204e8482856130ee565b509392505050565b600081359050612065816132a9565b92915050565b60008135905061207a816132c0565b92915050565b60008135905061208f816132d7565b92915050565b6000815190506120a4816132d7565b92915050565b600082601f8301126120bb57600080fd5b81356120cb848260208601612018565b91505092915050565b6000813590506120e3816132ee565b92915050565b6000602082840312156120fb57600080fd5b600061210984828501612056565b91505092915050565b6000806040838503121561212557600080fd5b600061213385828601612056565b925050602061214485828601612056565b9150509250929050565b60008060006060848603121561216357600080fd5b600061217186828701612056565b935050602061218286828701612056565b9250506040612193868287016120d4565b9150509250925092565b600080600080608085870312156121b357600080fd5b60006121c187828801612056565b94505060206121d287828801612056565b93505060406121e3878288016120d4565b925050606085013567ffffffffffffffff81111561220057600080fd5b61220c878288016120aa565b91505092959194509250565b6000806040838503121561222b57600080fd5b600061223985828601612056565b925050602061224a8582860161206b565b9150509250929050565b6000806040838503121561226757600080fd5b600061227585828601612056565b9250506020612286858286016120d4565b9150509250929050565b6000602082840312156122a257600080fd5b60006122b084828501612080565b91505092915050565b6000602082840312156122cb57600080fd5b60006122d984828501612095565b91505092915050565b6000602082840312156122f457600080fd5b6000612302848285016120d4565b91505092915050565b600061231783836129dd565b905092915050565b61232881613070565b82525050565b61233781613070565b82525050565b600061234882612f38565b6123528185612f66565b93508360208202850161236485612f28565b8060005b858110156123a05784840389528151612381858261230b565b945061238c83612f59565b925060208a01995050600181019050612368565b50829750879550505050505092915050565b6123bb81613082565b82525050565b60006123cc82612f43565b6123d68185612f77565b93506123e68185602086016130fd565b6123ef81613298565b840191505092915050565b612403816130ba565b82525050565b612412816130ba565b82525050565b600061242382612f4e565b61242d8185612f88565b935061243d8185602086016130fd565b61244681613298565b840191505092915050565b600061245c82612f4e565b6124668185612f99565b93506124768185602086016130fd565b61247f81613298565b840191505092915050565b600061249582612f4e565b61249f8185612faa565b93506124af8185602086016130fd565b80840191505092915050565b60006124c8603283612f99565b91507f4552433732313a207472616e7366657220746f206e6f6e20455243373231526560008301527f63656976657220696d706c656d656e74657200000000000000000000000000006020830152604082019050919050565b600061252e602583612f99565b91507f4552433732313a207472616e736665722066726f6d20696e636f72726563742060008301527f6f776e65720000000000000000000000000000000000000000000000000000006020830152604082019050919050565b6000612594601c83612f99565b91507f4552433732313a20746f6b656e20616c7265616479206d696e746564000000006000830152602082019050919050565b60006125d4602483612f99565b91507f4552433732313a207472616e7366657220746f20746865207a65726f2061646460008301527f72657373000000000000000000000000000000000000000000000000000000006020830152604082019050919050565b600061263a601983612f99565b91507f4552433732313a20617070726f766520746f2063616c6c6572000000000000006000830152602082019050919050565b600061267a602c83612f99565b91507f4552433732313a206f70657261746f7220717565727920666f72206e6f6e657860008301527f697374656e7420746f6b656e00000000000000000000000000000000000000006020830152604082019050919050565b60006126e0603883612f99565b91507f4552433732313a20617070726f76652063616c6c6572206973206e6f74206f7760008301527f6e6572206e6f7220617070726f76656420666f7220616c6c00000000000000006020830152604082019050919050565b6000612746602a83612f99565b91507f4552433732313a2062616c616e636520717565727920666f7220746865207a6560008301527f726f2061646472657373000000000000000000000000000000000000000000006020830152604082019050919050565b60006127ac602983612f99565b91507f4552433732313a206f776e657220717565727920666f72206e6f6e657869737460008301527f656e7420746f6b656e00000000000000000000000000000000000000000000006020830152604082019050919050565b6000612812602083612f99565b91507f4552433732313a206d696e7420746f20746865207a65726f20616464726573736000830152602082019050919050565b6000612852602c83612f99565b91507f4552433732313a20617070726f76656420717565727920666f72206e6f6e657860008301527f697374656e7420746f6b656e00000000000000000000000000000000000000006020830152604082019050919050565b60006128b8602f83612f99565b91507f4552433732314d657461646174613a2055524920717565727920666f72206e6f60008301527f6e6578697374656e7420746f6b656e00000000000000000000000000000000006020830152604082019050919050565b600061291e602183612f99565b91507f4552433732313a20617070726f76616c20746f2063757272656e74206f776e6560008301527f72000000000000000000000000000000000000000000000000000000000000006020830152604082019050919050565b6000612984603183612f99565b91507f4552433732313a207472616e736665722063616c6c6572206973206e6f74206f60008301527f776e6572206e6f7220617070726f7665640000000000000000000000000000006020830152604082019050919050565b60006101008301600083015184820360008601526129fb8282612418565b9150506020830151612a10602086018261231f565b506040830151612a2360408601826123fa565b506060830151612a3660608601826123fa565b506080830151612a4960808601826123fa565b5060a0830151612a5c60a0860182612b3d565b5060c0830151612a6f60c0860182612b3d565b5060e0830151612a8260e0860182612b3d565b508091505092915050565b6000610100830160008301518482036000860152612aab8282612418565b9150506020830151612ac0602086018261231f565b506040830151612ad360408601826123fa565b506060830151612ae660608601826123fa565b506080830151612af960808601826123fa565b5060a0830151612b0c60a0860182612b3d565b5060c0830151612b1f60c0860182612b3d565b5060e0830151612b3260e0860182612b3d565b508091505092915050565b612b46816130e4565b82525050565b612b55816130e4565b82525050565b6000612b67828561248a565b9150612b73828461248a565b91508190509392505050565b6000602082019050612b94600083018461232e565b92915050565b6000608082019050612baf600083018761232e565b612bbc602083018661232e565b612bc96040830185612b4c565b8181036060830152612bdb81846123c1565b905095945050505050565b60006020820190508181036000830152612c00818461233d565b905092915050565b6000602082019050612c1d60008301846123b2565b92915050565b60006020820190508181036000830152612c3d8184612451565b905092915050565b6000610100820190508181036000830152612c60818b612451565b9050612c6f602083018a61232e565b612c7c6040830189612409565b612c896060830188612409565b612c966080830187612409565b612ca360a0830186612b4c565b612cb060c0830185612b4c565b612cbd60e0830184612b4c565b9998505050505050505050565b60006020820190508181036000830152612ce3816124bb565b9050919050565b60006020820190508181036000830152612d0381612521565b9050919050565b60006020820190508181036000830152612d2381612587565b9050919050565b60006020820190508181036000830152612d43816125c7565b9050919050565b60006020820190508181036000830152612d638161262d565b9050919050565b60006020820190508181036000830152612d838161266d565b9050919050565b60006020820190508181036000830152612da3816126d3565b9050919050565b60006020820190508181036000830152612dc381612739565b9050919050565b60006020820190508181036000830152612de38161279f565b9050919050565b60006020820190508181036000830152612e0381612805565b9050919050565b60006020820190508181036000830152612e2381612845565b9050919050565b60006020820190508181036000830152612e43816128ab565b9050919050565b60006020820190508181036000830152612e6381612911565b9050919050565b60006020820190508181036000830152612e8381612977565b9050919050565b60006020820190508181036000830152612ea48184612a8d565b905092915050565b6000602082019050612ec16000830184612b4c565b92915050565b6000604051905081810181811067ffffffffffffffff82111715612eee57612eed613269565b5b8060405250919050565b600067ffffffffffffffff821115612f1357612f12613269565b5b601f19601f8301169050602081019050919050565b6000819050602082019050919050565b600081519050919050565b600081519050919050565b600081519050919050565b6000602082019050919050565b600082825260208201905092915050565b600082825260208201905092915050565b600082825260208201905092915050565b600082825260208201905092915050565b600081905092915050565b6000612fc0826130e4565b9150612fcb836130e4565b9250827fffffffffffffffffffffffffffffffffffffffffffffffffffffffffffffffff0382111561300057612fff6131dc565b5b828201905092915050565b6000613016826130e4565b9150613021836130e4565b9250826130315761303061320b565b5b828204905092915050565b6000613047826130e4565b9150613052836130e4565b925082821015613065576130646131dc565b5b828203905092915050565b600061307b826130c4565b9050919050565b60008115159050919050565b60007fffffffff0000000000000000000000000000000000000000000000000000000082169050919050565b6000819050919050565b600073ffffffffffffffffffffffffffffffffffffffff82169050919050565b6000819050919050565b82818337600083830152505050565b60005b8381101561311b578082015181840152602081019050613100565b8381111561312a576000848401525b50505050565b6000600282049050600182168061314857607f821691505b6020821081141561315c5761315b61323a565b5b50919050565b600061316d826130e4565b91507fffffffffffffffffffffffffffffffffffffffffffffffffffffffffffffffff8214156131a05761319f6131dc565b5b600182019050919050565b60006131b6826130e4565b91506131c1836130e4565b9250826131d1576131d061320b565b5b828206905092915050565b7f4e487b7100000000000000000000000000000000000000000000000000000000600052601160045260246000fd5b7f4e487b7100000000000000000000000000000000000000000000000000000000600052601260045260246000fd5b7f4e487b7100000000000000000000000000000000000000000000000000000000600052602260045260246000fd5b7f4e487b7100000000000000000000000000000000000000000000000000000000600052604160045260246000fd5b6000601f19601f8301169050919050565b6132b281613070565b81146132bd57600080fd5b50565b6132c981613082565b81146132d457600080fd5b50565b6132e08161308e565b81146132eb57600080fd5b50565b6132f7816130e4565b811461330257600080fd5b5056fea26469706673582212207be19539f4addabd1c3b80ab05c835ccaf87f6c3d046868e5870197d9220214d64736f6c63430008000033",
  "immutableReferences": {},
  "source": "// SPDX-License-Identifier: MIT\npragma solidity ^0.8.0;\n\nimport \"@openzeppelin/contracts/token/ERC721/ERC721.sol\";\n\ncontract Land is ERC721 {\n// Lets make this contract NFT, in order to make it this should inherit from \n//standard ERC721 contract in openzepplelin library\n    uint256 public cost = 1 ether;\n    uint256 public maxSupply = 5;\n// Current supply of land. Initialise the variable with zero\n    uint256 public totalSupply = 0;\n// //every building will be defined  and created by below struct template. \n    struct Building {\n        string name;\n        address owner;\n        int256 posX;\n        int256 posY;\n        int256 posZ;\n        uint256 sizeX;\n        uint256 sizeY;\n        uint256 sizeZ;\n    }\n// we are going to store all buildings created using above template in array called buildings\n    Building[] public buildings;\n// constructor is function that gets auto-called immediately after contract migration to chain\n// storage  permanent storage, memory keyword- temporary storage\n//ERC721 is  gives another constructor from librabry which takes name and symbol\n\n    constructor(\n        string memory _name,\n        string memory _symbol,\n        uint256 _cost\n    ) ERC721(_name, _symbol) {\n        cost = _cost;\n\n        buildings.push(\n            Building(\"City Hall\", address(0x0), 0, 0, 0, 10, 10, 10)\n        );\n        // address is 0x0 as currently there is no owner\n        buildings.push(Building(\"Stadium\", address(0x0), 0, 10, 0, 10, 5, 3));\n        buildings.push(\n            Building(\"University\", address(0x0), 0, -10, 0, 10, 5, 3)\n        );\n        buildings.push(\n            Building(\"Shopping Plaza 1\", address(0x0), 10, 0, 0, 5, 25, 5)\n        );\n        buildings.push(\n            Building(\"Shopping Plaza 2\", address(0x0), -10, 0, 0, 5, 25, 5)\n        );\n    }\n\n    function mint(uint256 _id) public payable {\n    // public anybody can call it , payable it takes ether\n    //id of land/plot , that to be bought\n        uint256 supply = totalSupply;\n        require(supply <= maxSupply);\n        //building is not bought by other owner\n        // id starts with 1 but arrays starts with 0\n        require(buildings[_id - 1].owner == address(0x0));\n        require(msg.value >= cost);\n        // cost defined is 1 eth in contract\n        // NOTE: tokenID always starts from 1, but our array starts from 0\n        buildings[_id - 1].owner = msg.sender;\n        totalSupply = totalSupply + 1; // it was initiated with 0\n\n        _safeMint(msg.sender, _id);\n        // this function gets from ERC721  library  \n        //and handles all buying of land it gets two arguments \n        //first who bought land  and another id of owner\n    }\n\n    function transferFrom(\n        // to transfer  land from one owner to another owner\n        address from,\n        address to,\n        uint256 tokenId\n    ) public override {\n        //override keyword is used as this function \n        // is already implemented in ERC721 and we are using newer implementation /version //of it here \n        require(\n            // this function from ERC721 contract, \n            //checks if transfer is approved by owner or this is actual owner of NFT\n            _isApprovedOrOwner(_msgSender(), tokenId),\n             //if false give below message\n            \"ERC721: transfer caller is not owner nor approved\"\n        );\n\n        // Update Building ownership\n        buildings[tokenId - 1].owner = to;\n\n        _transfer(from, to, tokenId);\n    }\n    // safeTransferFrom is same as that of safeTransfer function \n    //except it has 4 arguments instead of 3. i.e.bytes memory _data\n    function safeTransferFrom(\n        address from,\n        address to,\n        uint256 tokenId,\n        bytes memory _data\n    ) public override {\n        require(\n            _isApprovedOrOwner(_msgSender(), tokenId),\n            //if false give below message\n            \"ERC721: transfer caller is not owner nor approved\"\n        );\n\n        // if true Update Building ownership\n        buildings[tokenId - 1].owner = to;\n\n        _safeTransfer(from, to, tokenId, _data);\n    }\n\n    // Public View Functions\n    //we want to return building array stored in memory\n    // as we are just reading this function hence view\n    function getBuildings() public view returns (Building[] memory) {\n        return buildings;\n    }\n   // another function to get specific building instead of complete array\n    function getBuilding(uint256 _id) public view returns (Building memory) {\n        return buildings[_id - 1];\n    }\n}",
  "sourcePath": "/home/branded/projects/metaverse/src/contracts/Land.sol",
  "compiler": {
    "name": "solc",
    "version": "0.8.0+commit.c7dfd78e.Emscripten.clang"
  },
  "schemaVersion": "3.4.5",
  "updatedAt": "2022-06-02T01:21:28.111Z",
  "networkType": "ethereum",
  "devdoc": {
    "kind": "dev",
    "methods": {
      "approve(address,uint256)": {
        "details": "See {IERC721-approve}."
      },
      "balanceOf(address)": {
        "details": "See {IERC721-balanceOf}."
      },
      "getApproved(uint256)": {
        "details": "See {IERC721-getApproved}."
      },
      "isApprovedForAll(address,address)": {
        "details": "See {IERC721-isApprovedForAll}."
      },
      "name()": {
        "details": "See {IERC721Metadata-name}."
      },
      "ownerOf(uint256)": {
        "details": "See {IERC721-ownerOf}."
      },
      "safeTransferFrom(address,address,uint256)": {
        "details": "See {IERC721-safeTransferFrom}."
      },
      "safeTransferFrom(address,address,uint256,bytes)": {
        "details": "See {IERC721-safeTransferFrom}."
      },
      "setApprovalForAll(address,bool)": {
        "details": "See {IERC721-setApprovalForAll}."
      },
      "supportsInterface(bytes4)": {
        "details": "See {IERC165-supportsInterface}."
      },
      "symbol()": {
        "details": "See {IERC721Metadata-symbol}."
      },
      "tokenURI(uint256)": {
        "details": "See {IERC721Metadata-tokenURI}."
      },
      "transferFrom(address,address,uint256)": {
        "details": "See {IERC721-transferFrom}."
      }
    },
    "version": 1
  },
  "userdoc": {
    "kind": "user",
    "methods": {},
    "version": 1
  }
}